{
  "contractName": "old",
  "abi": [
    {
      "inputs": [],
      "payable": false,
      "stateMutability": "nonpayable",
      "type": "constructor"
    },
    {
      "constant": true,
      "inputs": [],
      "name": "admin",
      "outputs": [
        {
          "internalType": "address payable",
          "name": "",
          "type": "address"
        }
      ],
      "payable": false,
      "stateMutability": "view",
      "type": "function"
    },
    {
      "constant": false,
      "inputs": [
        {
          "internalType": "uint256",
          "name": "price",
          "type": "uint256"
        },
        {
          "internalType": "string",
          "name": "website",
          "type": "string"
        },
        {
          "internalType": "string",
          "name": "code",
          "type": "string"
        }
      ],
      "name": "postItem",
      "outputs": [],
      "payable": false,
      "stateMutability": "nonpayable",
      "type": "function"
    },
    {
      "constant": false,
      "inputs": [
        {
          "internalType": "uint256",
          "name": "index",
          "type": "uint256"
        }
      ],
      "name": "buyItem",
      "outputs": [],
      "payable": true,
      "stateMutability": "payable",
      "type": "function"
    },
    {
      "constant": false,
      "inputs": [
        {
          "internalType": "address",
          "name": "seller",
          "type": "address"
        },
        {
          "internalType": "uint256",
          "name": "rating",
          "type": "uint256"
        }
      ],
      "name": "rate",
      "outputs": [],
      "payable": false,
      "stateMutability": "nonpayable",
      "type": "function"
    },
    {
      "constant": true,
      "inputs": [
        {
          "internalType": "address",
          "name": "seller",
          "type": "address"
        }
      ],
      "name": "get_rating",
      "outputs": [
        {
          "internalType": "uint256",
          "name": "average",
          "type": "uint256"
        }
      ],
      "payable": false,
      "stateMutability": "view",
      "type": "function"
    }
  ],
  "bytecode": "0x608060405234801561001057600080fd5b5033600160006101000a81548173ffffffffffffffffffffffffffffffffffffffff021916908373ffffffffffffffffffffffffffffffffffffffff160217905550610de6806100616000396000f3fe60806040526004361061004a5760003560e01c80639f4f60311461004f578063b624633c146100b4578063c4393dfc1461010f578063e7fb74c714610278578063f851a440146102a6575b600080fd5b34801561005b57600080fd5b5061009e6004803603602081101561007257600080fd5b81019080803573ffffffffffffffffffffffffffffffffffffffff1690602001909291905050506102fd565b6040518082815260200191505060405180910390f35b3480156100c057600080fd5b5061010d600480360360408110156100d757600080fd5b81019080803573ffffffffffffffffffffffffffffffffffffffff1690602001909291908035906020019092919050505061045f565b005b34801561011b57600080fd5b506102766004803603606081101561013257600080fd5b81019080803590602001909291908035906020019064010000000081111561015957600080fd5b82018360208201111561016b57600080fd5b8035906020019184600183028401116401000000008311171561018d57600080fd5b91908080601f016020809104026020016040519081016040528093929190818152602001838380828437600081840152601f19601f820116905080830192505050505050509192919290803590602001906401000000008111156101f057600080fd5b82018360208201111561020257600080fd5b8035906020019184600183028401116401000000008311171561022457600080fd5b91908080601f016020809104026020016040519081016040528093929190818152602001838380828437600081840152601f19601f8201169050808301925050505050505091929192905050506106aa565b005b6102a46004803603602081101561028e57600080fd5b81019080803590602001909291905050506107f4565b005b3480156102b257600080fd5b506102bb610c70565b604051808273ffffffffffffffffffffffffffffffffffffffff1673ffffffffffffffffffffffffffffffffffffffff16815260200191505060405180910390f35b6000806000808473ffffffffffffffffffffffffffffffffffffffff1673ffffffffffffffffffffffffffffffffffffffff168152602001908152602001600020805490501415610351576000905061045a565b600080905060008090505b6000808573ffffffffffffffffffffffffffffffffffffffff1673ffffffffffffffffffffffffffffffffffffffff1681526020019081526020016000208054905081101561040a576000808573ffffffffffffffffffffffffffffffffffffffff1673ffffffffffffffffffffffffffffffffffffffff16815260200190815260200160002081815481106103ee57fe5b906000526020600020015482019150808060010191505061035c565b506000808473ffffffffffffffffffffffffffffffffffffffff1673ffffffffffffffffffffffffffffffffffffffff16815260200190815260200160002080549050818161045557fe5b049150505b919050565b8060058111158015610472575060018110155b6104c7576040517f08c379a0000000000000000000000000000000000000000000000000000000008152600401808060200182810382526024815260200180610d8e6024913960400191505060405180910390fd5b82600080905060008090505b6003805490508110156105dc578273ffffffffffffffffffffffffffffffffffffffff166003828154811061050457fe5b906000526020600020906006020160000160010160009054906101000a900473ffffffffffffffffffffffffffffffffffffffff1673ffffffffffffffffffffffffffffffffffffffff161480156105c557503373ffffffffffffffffffffffffffffffffffffffff166003828154811061057b57fe5b906000526020600020906006020160050160009054906101000a900473ffffffffffffffffffffffffffffffffffffffff1673ffffffffffffffffffffffffffffffffffffffff16145b156105cf57600191505b80806001019150506104d3565b50806105e757600080fd5b60008060008773ffffffffffffffffffffffffffffffffffffffff1673ffffffffffffffffffffffffffffffffffffffff168152602001908152602001600020905080859080600181540180825580915050906001820390600052602060002001600090919290919091505550806000808873ffffffffffffffffffffffffffffffffffffffff1673ffffffffffffffffffffffffffffffffffffffff1681526020019081526020016000209080546106a1929190610c96565b50505050505050565b60018310156106b857600080fd5b60008251116106c657600080fd5b60008151116106d457600080fd5b60026040518060a001604052808581526020013373ffffffffffffffffffffffffffffffffffffffff16815260200184815260200183815260200160001515815250908060018154018082558091505090600182039060005260206000209060050201600090919290919091506000820151816000015560208201518160010160006101000a81548173ffffffffffffffffffffffffffffffffffffffff021916908373ffffffffffffffffffffffffffffffffffffffff16021790555060408201518160020190805190602001906107ae929190610ce8565b5060608201518160030190805190602001906107cb929190610ce8565b5060808201518160040160006101000a81548160ff021916908315150217905550505050505050565b60006002828154811061080357fe5b90600052602060002090600502019050600015158160040160009054906101000a900460ff1615151461083257fe5b806000015434101561084357600080fd5b60018160040160006101000a81548160ff02191690831515021790555060036040518060400160405280836040518060a0016040529081600082015481526020016001820160009054906101000a900473ffffffffffffffffffffffffffffffffffffffff1673ffffffffffffffffffffffffffffffffffffffff1673ffffffffffffffffffffffffffffffffffffffff168152602001600282018054600181600116156101000203166002900480601f0160208091040260200160405190810160405280929190818152602001828054600181600116156101000203166002900480156109725780601f1061094757610100808354040283529160200191610972565b820191906000526020600020905b81548152906001019060200180831161095557829003601f168201915b50505050508152602001600382018054600181600116156101000203166002900480601f016020809104026020016040519081016040528092919081815260200182805460018160011615610100020316600290048015610a145780601f106109e957610100808354040283529160200191610a14565b820191906000526020600020905b8154815290600101906020018083116109f757829003601f168201915b505050505081526020016004820160009054906101000a900460ff16151515158152505081526020013373ffffffffffffffffffffffffffffffffffffffff16815250908060018154018082558091505090600182039060005260206000209060060201600090919290919091506000820151816000016000820151816000015560208201518160010160006101000a81548173ffffffffffffffffffffffffffffffffffffffff021916908373ffffffffffffffffffffffffffffffffffffffff1602179055506040820151816002019080519060200190610af8929190610ce8565b506060820151816003019080519060200190610b15929190610ce8565b5060808201518160040160006101000a81548160ff021916908315150217905550505060208201518160050160006101000a81548173ffffffffffffffffffffffffffffffffffffffff021916908373ffffffffffffffffffffffffffffffffffffffff1602179055505050508060010160009054906101000a900473ffffffffffffffffffffffffffffffffffffffff1673ffffffffffffffffffffffffffffffffffffffff166108fc600a3481610bca57fe5b0434039081150290604051600060405180830381858888f19350505050158015610bf8573d6000803e3d6000fd5b50600160009054906101000a900473ffffffffffffffffffffffffffffffffffffffff1673ffffffffffffffffffffffffffffffffffffffff166108fc600a3481610c3f57fe5b049081150290604051600060405180830381858888f19350505050158015610c6b573d6000803e3d6000fd5b505050565b600160009054906101000a900473ffffffffffffffffffffffffffffffffffffffff1681565b828054828255906000526020600020908101928215610cd75760005260206000209182015b82811115610cd6578254825591600101919060010190610cbb565b5b509050610ce49190610d68565b5090565b828054600181600116156101000203166002900490600052602060002090601f016020900481019282601f10610d2957805160ff1916838001178555610d57565b82800160010185558215610d57579182015b82811115610d56578251825591602001919060010190610d3b565b5b509050610d649190610d68565b5090565b610d8a91905b80821115610d86576000816000905550600101610d6e565b5090565b9056fe526174696e67206d757374206265206265747765656e206f6e6520616e6420666976652ea265627a7a72315820b89288ce63658a69e8da1436827c60a4321813c33d6ce6d23bd3d2b68ae042d564736f6c63430005100032",
  "source": "pragma solidity >=0.4.22 <=0.6.12;\ncontract old{\n\n    struct Item{\n        uint price;\n        address payable seller;\n        string website;\n        string code;\n        bool sold;\n    }\n\n    struct Transaction{\n        Item item;\n        address buyer;\n    }\n\n    mapping(address=>uint[]) seller_ratings;\n    address payable public admin;\n    Item[] items;\n    Transaction[] transactions;\n\n    constructor () public {\n            admin = msg.sender;\n        }\n\n    modifier onlyAdmin() \n     {require(msg.sender == admin);\n      _;\n     }\n\n    modifier verifiedPurchase(address seller){\n        bool verified = false;\n        for(uint i = 0; i<transactions.length; i++){\n            if(transactions[i].item.seller == seller && transactions[i].buyer == msg.sender){\n                verified = true;\n            }\n        }\n        require(verified);\n        _;\n    }\n\n    modifier lessThanFive(uint rating){\n        require(rating <= 5 && rating >= 1, \"Rating must be between one and five.\");\n        _;\n    }\n\n    function postItem(uint price, string memory website, string memory code) public{\n        require(price >= 1);\n        require(bytes(website).length > 0);\n        require(bytes(code).length > 0);\n        items.push(Item(price, msg.sender, website, code, false));\n    }\n\n    function buyItem(uint index) payable public{\n        Item storage item = items[index];\n        assert(item.sold == false);\n        require(msg.value >= item.price);\n        item.sold = true;\n        transactions.push(Transaction(item, msg.sender));\n        item.seller.transfer(msg.value - msg.value/10);\n        admin.transfer(msg.value/10);\n    }\n\n    function rate(address seller, uint rating) public lessThanFive(rating) verifiedPurchase(seller){\n        uint[] storage rats = seller_ratings[seller];\n        rats.push(rating);\n        seller_ratings[seller] = rats;\n    }\n\n    function get_rating(address seller) public view returns(uint average){\n        if(seller_ratings[seller].length == 0){\n            average = 0;\n        }\n        else{\n            uint sum = 0;\n            for(uint i = 0; i < seller_ratings[seller].length; i++){\n                sum += seller_ratings[seller][i];\n            }\n            average = sum/seller_ratings[seller].length;\n        }\n        \n    }\n\n}",
  "sourcePath": "C:\\Users\\sfrie\\OneDrive\\Desktop\\Promo_Code_Bazaar\\contract\\contracts\\old.sol",
  "compiler": {
    "name": "solc",
    "version": "0.5.16+commit.9c3226ce.Emscripten.clang"
  },
  "schemaVersion": "3.4.6",
  "updatedAt": "2022-04-15T13:30:36.943Z",
  "devdoc": {
    "methods": {}
  },
  "userdoc": {
    "methods": {}
  }
}