{
  "contractName": "PromoCodeBazaar",
  "abi": [
    {
      "inputs": [],
      "payable": false,
      "stateMutability": "nonpayable",
      "type": "constructor"
    },
    {
      "constant": true,
      "inputs": [],
      "name": "admin",
      "outputs": [
        {
          "internalType": "address payable",
          "name": "",
          "type": "address"
        }
      ],
      "payable": false,
      "stateMutability": "view",
      "type": "function"
    },
    {
      "constant": false,
      "inputs": [
        {
          "internalType": "address payable",
          "name": "seller",
          "type": "address"
        }
      ],
      "name": "buy",
      "outputs": [],
      "payable": true,
      "stateMutability": "payable",
      "type": "function"
    }
  ],
  "bytecode": "0x608060405234801561001057600080fd5b50336000806101000a81548173ffffffffffffffffffffffffffffffffffffffff021916908373ffffffffffffffffffffffffffffffffffffffff1602179055506101eb806100606000396000f3fe6080604052600436106100295760003560e01c8063f088d5471461002e578063f851a44014610072575b600080fd5b6100706004803603602081101561004457600080fd5b81019080803573ffffffffffffffffffffffffffffffffffffffff1690602001909291905050506100c9565b005b34801561007e57600080fd5b50610087610191565b604051808273ffffffffffffffffffffffffffffffffffffffff1673ffffffffffffffffffffffffffffffffffffffff16815260200191505060405180910390f35b8073ffffffffffffffffffffffffffffffffffffffff166108fc600a34816100ed57fe5b0434039081150290604051600060405180830381858888f1935050505015801561011b573d6000803e3d6000fd5b506000809054906101000a900473ffffffffffffffffffffffffffffffffffffffff1673ffffffffffffffffffffffffffffffffffffffff166108fc600a348161016157fe5b049081150290604051600060405180830381858888f1935050505015801561018d573d6000803e3d6000fd5b5050565b6000809054906101000a900473ffffffffffffffffffffffffffffffffffffffff168156fea265627a7a72315820d380088e8c41a50bcca96728f298237411d6d07fda705461f0420d46095443e864736f6c63430005100032",
  "source": "pragma solidity >=0.4.22 <= 0.6.12;\ncontract PromoCodeBazaar{\n\n    address payable public admin;\n\n     constructor () public {\n            admin = msg.sender;\n        }\n\n    function buy(address payable seller) payable public{\n        seller.transfer(msg.value - msg.value/10);\n        admin.transfer(msg.value/10);\n    }\n\n}",
  "sourcePath": "C:\\Users\\sfrie\\OneDrive\\Desktop\\Promo_Code_Bazaar\\contract\\contracts\\PromoCodeBazaar.sol",
  "compiler": {
    "name": "solc",
    "version": "0.5.16+commit.9c3226ce.Emscripten.clang"
  },
  "schemaVersion": "3.4.6",
  "updatedAt": "2022-04-15T13:30:39.249Z",
  "networkType": "ethereum",
  "devdoc": {
    "methods": {}
  },
  "userdoc": {
    "methods": {}
  }
}